:0C44000000000000FFFF0000FFFF0000B4
:02440C000000AE
:02440E000100AB
:10441000314000243C40021C0D433E401200B012CB
:10442000D4453C40001C3D400C440D9C04243E40BF
:104430000200B012A045B01200460C43B012204555
:10444000344000443540004426430D3C3440004491
:10445000354000442643073C344000443540004486
:104460003640FEFF003C0594052427440456A7125D
:104470001040F4FF3041304130413C401C463C90FC
:104480001C4607243D4000000D9303243C401C467D
:104490008D1230413D401C463D801C460D110C4D97
:1044A0005C034D180C110D5C0D110D9307243E405B
:1044B00000000E9303243C401C468E1230411A1516
:1044C000C293021C17203A400A443A8008440A1159
:1044D0003A53394008441C42041C0C9A0D28B0126F
:1044E0007A443D4000000D9303243C4000448D126B
:1044F000D243021C191730411C53824C041C0C5C23
:104500000C592C4C8C12E73F3E4000000E930524C2
:104510003D40061C3C4000448E12B0129444304191
:10452000B240805A5C0192C33001D2D30402F2D06F
:1045300080FF8402B2D000024003B2D0C00040032A
:10454000B2D010004003B24001515203A2D3400345
:10455000B2D000028003B2D0C0008003B2D01000FD
:104560008003B24045939203A2D38003034332D029
:1045700018000343FF3F0C151C426E033C900E00D5
:104580000220D2E302020C1700130C151C42AE03EA
:104590003C900E000320F25080FF82020C170013A3
:1045A0000D9C09280F4C0E5C0E9F0C24EF4D000053
:1045B0001F531D53F93F0F4D0F5E0C9FF32F3E53BA
:1045C0003E93012030410B4C0B5E0F4D0F5EEB4FC5
:1045D0000000F53F0F4C0E5C0F9E01203041CF4D87
:1045E00000001F53F93F30410A153A4004442C4A59
:1045F0003C9302200A1730418C123A50FEFFF73FDD
:10460000B0120845B012E845B0124C44B012404414
:0C4610003041B0125844B012BE4430419A
:02FFDC008A4554
:02FFE60076455E
:02FFFE001044AD
:0400000300004410A5
:00000001FF
